{
  "_format": "hh-sol-artifact-1",
  "contractName": "Marketplace",
  "sourceName": "src/backend/contracts/Marketplace.sol",
  "abi": [
    {
      "inputs": [
        {
          "internalType": "uint256",
          "name": "_feePercent",
          "type": "uint256"
        }
      ],
      "stateMutability": "nonpayable",
      "type": "constructor"
    },
    {
      "anonymous": false,
      "inputs": [
        {
          "indexed": false,
          "internalType": "uint256",
          "name": "itemId",
          "type": "uint256"
        },
        {
          "indexed": true,
          "internalType": "address",
          "name": "nft",
          "type": "address"
        },
        {
          "indexed": false,
          "internalType": "uint256",
          "name": "tokenId",
          "type": "uint256"
        },
        {
          "indexed": false,
          "internalType": "uint256",
          "name": "price",
          "type": "uint256"
        },
        {
          "indexed": true,
          "internalType": "address",
          "name": "seller",
          "type": "address"
        },
        {
          "indexed": true,
          "internalType": "address",
          "name": "buyer",
          "type": "address"
        }
      ],
      "name": "Bought",
      "type": "event"
    },
    {
      "anonymous": false,
      "inputs": [
        {
          "indexed": false,
          "internalType": "uint256",
          "name": "itemId",
          "type": "uint256"
        },
        {
          "indexed": true,
          "internalType": "address",
          "name": "nft",
          "type": "address"
        },
        {
          "indexed": false,
          "internalType": "uint256",
          "name": "tokenId",
          "type": "uint256"
        },
        {
          "indexed": false,
          "internalType": "uint256",
          "name": "price",
          "type": "uint256"
        },
        {
          "indexed": true,
          "internalType": "address",
          "name": "seller",
          "type": "address"
        }
      ],
      "name": "Offered",
      "type": "event"
    },
    {
      "inputs": [],
      "name": "boxplatform",
      "outputs": [
        {
          "internalType": "address payable",
          "name": "",
          "type": "address"
        }
      ],
      "stateMutability": "view",
      "type": "function"
    },
    {
      "inputs": [],
      "name": "boxprice",
      "outputs": [
        {
          "internalType": "uint256",
          "name": "",
          "type": "uint256"
        }
      ],
      "stateMutability": "view",
      "type": "function"
    },
    {
      "inputs": [],
      "name": "feeAccount",
      "outputs": [
        {
          "internalType": "address payable",
          "name": "",
          "type": "address"
        }
      ],
      "stateMutability": "view",
      "type": "function"
    },
    {
      "inputs": [],
      "name": "feePercent",
      "outputs": [
        {
          "internalType": "uint256",
          "name": "",
          "type": "uint256"
        }
      ],
      "stateMutability": "view",
      "type": "function"
    },
    {
      "inputs": [
        {
          "internalType": "uint256",
          "name": "_itemId",
          "type": "uint256"
        }
      ],
      "name": "getTotalPrice",
      "outputs": [
        {
          "internalType": "uint256",
          "name": "",
          "type": "uint256"
        }
      ],
      "stateMutability": "view",
      "type": "function"
    },
    {
      "inputs": [],
      "name": "itemCount",
      "outputs": [
        {
          "internalType": "uint256",
          "name": "",
          "type": "uint256"
        }
      ],
      "stateMutability": "view",
      "type": "function"
    },
    {
      "inputs": [
        {
          "internalType": "uint256",
          "name": "",
          "type": "uint256"
        }
      ],
      "name": "items",
      "outputs": [
        {
          "internalType": "uint256",
          "name": "itemId",
          "type": "uint256"
        },
        {
          "internalType": "contract IERC721",
          "name": "nft",
          "type": "address"
        },
        {
          "internalType": "uint256",
          "name": "tokenId",
          "type": "uint256"
        },
        {
          "internalType": "uint256",
          "name": "price",
          "type": "uint256"
        },
        {
          "internalType": "address payable",
          "name": "seller",
          "type": "address"
        },
        {
          "internalType": "bool",
          "name": "sold",
          "type": "bool"
        }
      ],
      "stateMutability": "view",
      "type": "function"
    },
    {
      "inputs": [
        {
          "internalType": "contract IERC721",
          "name": "_nft",
          "type": "address"
        },
        {
          "internalType": "uint256",
          "name": "_tokenId",
          "type": "uint256"
        },
        {
          "internalType": "uint256",
          "name": "_price",
          "type": "uint256"
        }
      ],
      "name": "makeItem",
      "outputs": [],
      "stateMutability": "nonpayable",
      "type": "function"
    },
    {
      "inputs": [
        {
          "internalType": "uint256",
          "name": "_itemId",
          "type": "uint256"
        }
      ],
      "name": "purchaseItem",
      "outputs": [],
      "stateMutability": "payable",
      "type": "function"
    }
  ],
  "bytecode": "0x60e06040526702c68af0bb140000600255731398f889b45cff3ef68dc0e9c6611ce3021322c9600360006101000a81548173ffffffffffffffffffffffffffffffffffffffff021916908373ffffffffffffffffffffffffffffffffffffffff160217905550600360009054906101000a900473ffffffffffffffffffffffffffffffffffffffff1673ffffffffffffffffffffffffffffffffffffffff1660c09073ffffffffffffffffffffffffffffffffffffffff1660601b8152503480156100c957600080fd5b5060405161133e38038061133e83398181016040528101906100eb919061014d565b60016000819055503373ffffffffffffffffffffffffffffffffffffffff1660808173ffffffffffffffffffffffffffffffffffffffff1660601b815250508060a0818152505050610197565b60008151905061014781610180565b92915050565b60006020828403121561015f57600080fd5b600061016d84828501610138565b91505092915050565b6000819050919050565b61018981610176565b811461019457600080fd5b50565b60805160601c60a05160c05160601c6111566101e86000396000818161025201526105210152600081816102760152818161032d01526103de015260008181610228015261058a01526111566000f3fe6080604052600436106100865760003560e01c80638a6688ec116100595780638a6688ec14610137578063bfb231d214610162578063ca7dd375146101a4578063d38ea5bf146101e1578063fa00afc7146101fd57610086565b806365e17c9d1461008b5780636bfb0d01146100b6578063709d24cb146100e15780637fd6f15c1461010c575b600080fd5b34801561009757600080fd5b506100a0610226565b6040516100ad9190610bfd565b60405180910390f35b3480156100c257600080fd5b506100cb61024a565b6040516100d89190610cef565b60405180910390f35b3480156100ed57600080fd5b506100f6610250565b6040516101039190610bfd565b60405180910390f35b34801561011857600080fd5b50610121610274565b60405161012e9190610cef565b60405180910390f35b34801561014357600080fd5b5061014c610298565b6040516101599190610cef565b60405180910390f35b34801561016e57600080fd5b5061018960048036038101906101849190610ada565b61029e565b60405161019b96959493929190610d0a565b60405180910390f35b3480156101b057600080fd5b506101cb60048036038101906101c69190610ada565b610327565b6040516101d89190610cef565b60405180910390f35b6101fb60048036038101906101f69190610ada565b61038a565b005b34801561020957600080fd5b50610224600480360381019061021f9190610a8b565b61078b565b005b7f000000000000000000000000000000000000000000000000000000000000000081565b60015481565b7f000000000000000000000000000000000000000000000000000000000000000081565b7f000000000000000000000000000000000000000000000000000000000000000081565b60025481565b60046020528060005260406000206000915090508060000154908060010160009054906101000a900473ffffffffffffffffffffffffffffffffffffffff16908060020154908060030154908060040160009054906101000a900473ffffffffffffffffffffffffffffffffffffffff16908060040160149054906101000a900460ff16905086565b600060647f000000000000000000000000000000000000000000000000000000000000000060646103589190610db3565b60046000858152602001908152602001600020600301546103799190610e3a565b6103839190610e09565b9050919050565b600260005414156103d0576040517f08c379a00000000000000000000000000000000000000000000000000000000081526004016103c790610ccf565b60405180910390fd5b6002600081905550600060647f000000000000000000000000000000000000000000000000000000000000000060646104099190610db3565b6002546104169190610e3a565b6104209190610e09565b9050600060046000848152602001908152602001600020905060008311801561044b57506001548311155b61048a576040517f08c379a000000000000000000000000000000000000000000000000000000000815260040161048190610caf565b60405180910390fd5b813410156104cd576040517f08c379a00000000000000000000000000000000000000000000000000000000081526004016104c490610c8f565b60405180910390fd5b8060040160149054906101000a900460ff161561051f576040517f08c379a000000000000000000000000000000000000000000000000000000000815260040161051690610c4f565b60405180910390fd5b7f000000000000000000000000000000000000000000000000000000000000000073ffffffffffffffffffffffffffffffffffffffff166108fc6002549081150290604051600060405180830381858888f19350505050158015610587573d6000803e3d6000fd5b507f000000000000000000000000000000000000000000000000000000000000000073ffffffffffffffffffffffffffffffffffffffff166108fc600254846105d09190610e94565b9081150290604051600060405180830381858888f193505050501580156105fb573d6000803e3d6000fd5b5060018160040160146101000a81548160ff0219169083151502179055508060010160009054906101000a900473ffffffffffffffffffffffffffffffffffffffff1673ffffffffffffffffffffffffffffffffffffffff166323b872dd303384600201546040518463ffffffff1660e01b815260040161067e93929190610c18565b600060405180830381600087803b15801561069857600080fd5b505af11580156106ac573d6000803e3d6000fd5b505050503373ffffffffffffffffffffffffffffffffffffffff168160040160009054906101000a900473ffffffffffffffffffffffffffffffffffffffff1673ffffffffffffffffffffffffffffffffffffffff168260010160009054906101000a900473ffffffffffffffffffffffffffffffffffffffff1673ffffffffffffffffffffffffffffffffffffffff167f8b4c9c8a607d67b321582dd8461041b1dc2ceeca70c8b7f37f8e02095cf2e76d86856002015460025460405161077693929190610d6b565b60405180910390a45050600160008190555050565b600260005414156107d1576040517f08c379a00000000000000000000000000000000000000000000000000000000081526004016107c890610ccf565b60405180910390fd5b60026000819055506000811161081c576040517f08c379a000000000000000000000000000000000000000000000000000000000815260040161081390610c6f565b60405180910390fd5b6001600081548092919061082f90610f58565b91905055508273ffffffffffffffffffffffffffffffffffffffff166323b872dd3330856040518463ffffffff1660e01b815260040161087193929190610c18565b600060405180830381600087803b15801561088b57600080fd5b505af115801561089f573d6000803e3d6000fd5b505050506040518060c0016040528060015481526020018473ffffffffffffffffffffffffffffffffffffffff16815260200183815260200160025481526020013373ffffffffffffffffffffffffffffffffffffffff168152602001600015158152506004600060015481526020019081526020016000206000820151816000015560208201518160010160006101000a81548173ffffffffffffffffffffffffffffffffffffffff021916908373ffffffffffffffffffffffffffffffffffffffff160217905550604082015181600201556060820151816003015560808201518160040160006101000a81548173ffffffffffffffffffffffffffffffffffffffff021916908373ffffffffffffffffffffffffffffffffffffffff16021790555060a08201518160040160146101000a81548160ff0219169083151502179055509050503373ffffffffffffffffffffffffffffffffffffffff168373ffffffffffffffffffffffffffffffffffffffff167f655a0cf9c8db81512be9a76dc1c5ae5380b8816ce6ad659cd61b715e2999d59a60015485600254604051610a4c93929190610d6b565b60405180910390a36001600081905550505050565b600081359050610a70816110f2565b92915050565b600081359050610a8581611109565b92915050565b600080600060608486031215610aa057600080fd5b6000610aae86828701610a61565b9350506020610abf86828701610a76565b9250506040610ad086828701610a76565b9150509250925092565b600060208284031215610aec57600080fd5b6000610afa84828501610a76565b91505092915050565b610b0c81610eda565b82525050565b610b1b81610ec8565b82525050565b610b2a81610eec565b82525050565b610b3981610f34565b82525050565b6000610b4c601183610da2565b9150610b5782610fff565b602082019050919050565b6000610b6f601f83610da2565b9150610b7a82611028565b602082019050919050565b6000610b92603383610da2565b9150610b9d82611051565b604082019050919050565b6000610bb5601283610da2565b9150610bc0826110a0565b602082019050919050565b6000610bd8601f83610da2565b9150610be3826110c9565b602082019050919050565b610bf781610f2a565b82525050565b6000602082019050610c126000830184610b03565b92915050565b6000606082019050610c2d6000830186610b12565b610c3a6020830185610b12565b610c476040830184610bee565b949350505050565b60006020820190508181036000830152610c6881610b3f565b9050919050565b60006020820190508181036000830152610c8881610b62565b9050919050565b60006020820190508181036000830152610ca881610b85565b9050919050565b60006020820190508181036000830152610cc881610ba8565b9050919050565b60006020820190508181036000830152610ce881610bcb565b9050919050565b6000602082019050610d046000830184610bee565b92915050565b600060c082019050610d1f6000830189610bee565b610d2c6020830188610b30565b610d396040830187610bee565b610d466060830186610bee565b610d536080830185610b03565b610d6060a0830184610b21565b979650505050505050565b6000606082019050610d806000830186610bee565b610d8d6020830185610bee565b610d9a6040830184610bee565b949350505050565b600082825260208201905092915050565b6000610dbe82610f2a565b9150610dc983610f2a565b9250827fffffffffffffffffffffffffffffffffffffffffffffffffffffffffffffffff03821115610dfe57610dfd610fa1565b5b828201905092915050565b6000610e1482610f2a565b9150610e1f83610f2a565b925082610e2f57610e2e610fd0565b5b828204905092915050565b6000610e4582610f2a565b9150610e5083610f2a565b9250817fffffffffffffffffffffffffffffffffffffffffffffffffffffffffffffffff0483118215151615610e8957610e88610fa1565b5b828202905092915050565b6000610e9f82610f2a565b9150610eaa83610f2a565b925082821015610ebd57610ebc610fa1565b5b828203905092915050565b6000610ed382610f0a565b9050919050565b6000610ee582610f0a565b9050919050565b60008115159050919050565b6000610f0382610ec8565b9050919050565b600073ffffffffffffffffffffffffffffffffffffffff82169050919050565b6000819050919050565b6000610f3f82610f46565b9050919050565b6000610f5182610f0a565b9050919050565b6000610f6382610f2a565b91507fffffffffffffffffffffffffffffffffffffffffffffffffffffffffffffffff821415610f9657610f95610fa1565b5b600182019050919050565b7f4e487b7100000000000000000000000000000000000000000000000000000000600052601160045260246000fd5b7f4e487b7100000000000000000000000000000000000000000000000000000000600052601260045260246000fd5b7f6974656d20616c726561647920736f6c64000000000000000000000000000000600082015250565b7f5072696365206d7573742062652067726561746572207468616e207a65726f00600082015250565b7f6e6f7420656e6f75676820657468657220746f20636f766572206974656d207060008201527f7269636520616e64206d61726b65742066656500000000000000000000000000602082015250565b7f6974656d20646f65736e27742065786973740000000000000000000000000000600082015250565b7f5265656e7472616e637947756172643a207265656e7472616e742063616c6c00600082015250565b6110fb81610ef8565b811461110657600080fd5b50565b61111281610f2a565b811461111d57600080fd5b5056fea26469706673582212204e1dc6d764453d3bfeeee2678c19f4ad18519833303449ccf140a326c4f8c79c64736f6c63430008040033",
  "linkReferences": {},
  "deployedLinkReferences": {}
}