{
  "_format": "hh-sol-artifact-1",
  "contractName": "Marketplace",
  "sourceName": "src/backend/contracts/Marketplace.sol",
  "abi": [
    {
      "inputs": [
        {
          "internalType": "uint256",
          "name": "_feePercent",
          "type": "uint256"
        }
      ],
      "stateMutability": "nonpayable",
      "type": "constructor"
    },
    {
      "anonymous": false,
      "inputs": [
        {
          "indexed": false,
          "internalType": "uint256",
          "name": "itemId",
          "type": "uint256"
        },
        {
          "indexed": true,
          "internalType": "address",
          "name": "nft",
          "type": "address"
        },
        {
          "indexed": false,
          "internalType": "uint256",
          "name": "tokenId",
          "type": "uint256"
        },
        {
          "indexed": false,
          "internalType": "uint256",
          "name": "price",
          "type": "uint256"
        },
        {
          "indexed": true,
          "internalType": "address",
          "name": "seller",
          "type": "address"
        },
        {
          "indexed": true,
          "internalType": "address",
          "name": "buyer",
          "type": "address"
        }
      ],
      "name": "Bought",
      "type": "event"
    },
    {
      "anonymous": false,
      "inputs": [
        {
          "indexed": false,
          "internalType": "uint256",
          "name": "itemId",
          "type": "uint256"
        },
        {
          "indexed": true,
          "internalType": "address",
          "name": "nft",
          "type": "address"
        },
        {
          "indexed": false,
          "internalType": "uint256",
          "name": "tokenId",
          "type": "uint256"
        },
        {
          "indexed": false,
          "internalType": "uint256",
          "name": "price",
          "type": "uint256"
        },
        {
          "indexed": true,
          "internalType": "address",
          "name": "seller",
          "type": "address"
        }
      ],
      "name": "Offered",
      "type": "event"
    },
    {
      "inputs": [],
      "name": "boxplatform",
      "outputs": [
        {
          "internalType": "address payable",
          "name": "",
          "type": "address"
        }
      ],
      "stateMutability": "view",
      "type": "function"
    },
    {
      "inputs": [],
      "name": "boxprice",
      "outputs": [
        {
          "internalType": "uint256",
          "name": "",
          "type": "uint256"
        }
      ],
      "stateMutability": "view",
      "type": "function"
    },
    {
      "inputs": [],
      "name": "feeAccount",
      "outputs": [
        {
          "internalType": "address payable",
          "name": "",
          "type": "address"
        }
      ],
      "stateMutability": "view",
      "type": "function"
    },
    {
      "inputs": [],
      "name": "feePercent",
      "outputs": [
        {
          "internalType": "uint256",
          "name": "",
          "type": "uint256"
        }
      ],
      "stateMutability": "view",
      "type": "function"
    },
    {
      "inputs": [
        {
          "internalType": "uint256",
          "name": "_itemId",
          "type": "uint256"
        }
      ],
      "name": "getTotalPrice",
      "outputs": [
        {
          "internalType": "uint256",
          "name": "",
          "type": "uint256"
        }
      ],
      "stateMutability": "view",
      "type": "function"
    },
    {
      "inputs": [],
      "name": "itemCount",
      "outputs": [
        {
          "internalType": "uint256",
          "name": "",
          "type": "uint256"
        }
      ],
      "stateMutability": "view",
      "type": "function"
    },
    {
      "inputs": [
        {
          "internalType": "uint256",
          "name": "",
          "type": "uint256"
        }
      ],
      "name": "items",
      "outputs": [
        {
          "internalType": "uint256",
          "name": "itemId",
          "type": "uint256"
        },
        {
          "internalType": "contract IERC721",
          "name": "nft",
          "type": "address"
        },
        {
          "internalType": "uint256",
          "name": "tokenId",
          "type": "uint256"
        },
        {
          "internalType": "uint256",
          "name": "price",
          "type": "uint256"
        },
        {
          "internalType": "address payable",
          "name": "seller",
          "type": "address"
        },
        {
          "internalType": "bool",
          "name": "sold",
          "type": "bool"
        }
      ],
      "stateMutability": "view",
      "type": "function"
    },
    {
      "inputs": [
        {
          "internalType": "contract IERC721",
          "name": "_nft",
          "type": "address"
        },
        {
          "internalType": "uint256",
          "name": "_tokenId",
          "type": "uint256"
        }
      ],
      "name": "makeItem",
      "outputs": [],
      "stateMutability": "nonpayable",
      "type": "function"
    },
    {
      "inputs": [
        {
          "internalType": "uint256",
          "name": "_itemId",
          "type": "uint256"
        }
      ],
      "name": "purchaseItem",
      "outputs": [],
      "stateMutability": "payable",
      "type": "function"
    }
  ],
  "bytecode": "0x60e06040526702c68af0bb14000060025573f39fd6e51aad88f6f4ce6ab8827279cfffb92266600360006101000a81548173ffffffffffffffffffffffffffffffffffffffff021916908373ffffffffffffffffffffffffffffffffffffffff160217905550600360009054906101000a900473ffffffffffffffffffffffffffffffffffffffff1673ffffffffffffffffffffffffffffffffffffffff1660c09073ffffffffffffffffffffffffffffffffffffffff1660601b8152503480156100c957600080fd5b5060405161127d38038061127d83398181016040528101906100eb919061014d565b60016000819055503373ffffffffffffffffffffffffffffffffffffffff1660808173ffffffffffffffffffffffffffffffffffffffff1660601b815250508060a0818152505050610197565b60008151905061014781610180565b92915050565b60006020828403121561015f57600080fd5b600061016d84828501610138565b91505092915050565b6000819050919050565b61018981610176565b811461019457600080fd5b50565b60805160601c60a05160c05160601c6110956101e8600039600081816104e401526107b3015260008181610508015281816105bf01526106700152600081816104ba015261081c01526110956000f3fe6080604052600436106100865760003560e01c80637fd6f15c116100595780637fd6f15c146101355780638a6688ec14610160578063bfb231d21461018b578063ca7dd375146101cd578063d38ea5bf1461020a57610086565b80631a1beae21461008b57806365e17c9d146100b45780636bfb0d01146100df578063709d24cb1461010a575b600080fd5b34801561009757600080fd5b506100b260048036038101906100ad9190610a49565b610226565b005b3480156100c057600080fd5b506100c96104b8565b6040516100d69190610b85565b60405180910390f35b3480156100eb57600080fd5b506100f46104dc565b6040516101019190610c57565b60405180910390f35b34801561011657600080fd5b5061011f6104e2565b60405161012c9190610b85565b60405180910390f35b34801561014157600080fd5b5061014a610506565b6040516101579190610c57565b60405180910390f35b34801561016c57600080fd5b5061017561052a565b6040516101829190610c57565b60405180910390f35b34801561019757600080fd5b506101b260048036038101906101ad9190610a85565b610530565b6040516101c496959493929190610c72565b60405180910390f35b3480156101d957600080fd5b506101f460048036038101906101ef9190610a85565b6105b9565b6040516102019190610c57565b60405180910390f35b610224600480360381019061021f9190610a85565b61061c565b005b6002600054141561026c576040517f08c379a000000000000000000000000000000000000000000000000000000000815260040161026390610c37565b60405180910390fd5b60026000819055506001600081548092919061028790610ec0565b91905055508173ffffffffffffffffffffffffffffffffffffffff166323b872dd3330846040518463ffffffff1660e01b81526004016102c993929190610ba0565b600060405180830381600087803b1580156102e357600080fd5b505af11580156102f7573d6000803e3d6000fd5b505050506040518060c0016040528060015481526020018373ffffffffffffffffffffffffffffffffffffffff16815260200182815260200160025481526020013373ffffffffffffffffffffffffffffffffffffffff168152602001600015158152506004600060015481526020019081526020016000206000820151816000015560208201518160010160006101000a81548173ffffffffffffffffffffffffffffffffffffffff021916908373ffffffffffffffffffffffffffffffffffffffff160217905550604082015181600201556060820151816003015560808201518160040160006101000a81548173ffffffffffffffffffffffffffffffffffffffff021916908373ffffffffffffffffffffffffffffffffffffffff16021790555060a08201518160040160146101000a81548160ff0219169083151502179055509050503373ffffffffffffffffffffffffffffffffffffffff168273ffffffffffffffffffffffffffffffffffffffff167f655a0cf9c8db81512be9a76dc1c5ae5380b8816ce6ad659cd61b715e2999d59a600154846002546040516104a493929190610cd3565b60405180910390a360016000819055505050565b7f000000000000000000000000000000000000000000000000000000000000000081565b60015481565b7f000000000000000000000000000000000000000000000000000000000000000081565b7f000000000000000000000000000000000000000000000000000000000000000081565b60025481565b60046020528060005260406000206000915090508060000154908060010160009054906101000a900473ffffffffffffffffffffffffffffffffffffffff16908060020154908060030154908060040160009054906101000a900473ffffffffffffffffffffffffffffffffffffffff16908060040160149054906101000a900460ff16905086565b600060647f000000000000000000000000000000000000000000000000000000000000000060646105ea9190610d1b565b600460008581526020019081526020016000206003015461060b9190610da2565b6106159190610d71565b9050919050565b60026000541415610662576040517f08c379a000000000000000000000000000000000000000000000000000000000815260040161065990610c37565b60405180910390fd5b6002600081905550600060647f0000000000000000000000000000000000000000000000000000000000000000606461069b9190610d1b565b6002546106a89190610da2565b6106b29190610d71565b905060006004600084815260200190815260200160002090506000831180156106dd57506001548311155b61071c576040517f08c379a000000000000000000000000000000000000000000000000000000000815260040161071390610c17565b60405180910390fd5b8134101561075f576040517f08c379a000000000000000000000000000000000000000000000000000000000815260040161075690610bf7565b60405180910390fd5b8060040160149054906101000a900460ff16156107b1576040517f08c379a00000000000000000000000000000000000000000000000000000000081526004016107a890610bd7565b60405180910390fd5b7f000000000000000000000000000000000000000000000000000000000000000073ffffffffffffffffffffffffffffffffffffffff166108fc6002549081150290604051600060405180830381858888f19350505050158015610819573d6000803e3d6000fd5b507f000000000000000000000000000000000000000000000000000000000000000073ffffffffffffffffffffffffffffffffffffffff166108fc600254846108629190610dfc565b9081150290604051600060405180830381858888f1935050505015801561088d573d6000803e3d6000fd5b5060018160040160146101000a81548160ff0219169083151502179055508060010160009054906101000a900473ffffffffffffffffffffffffffffffffffffffff1673ffffffffffffffffffffffffffffffffffffffff166323b872dd303384600201546040518463ffffffff1660e01b815260040161091093929190610ba0565b600060405180830381600087803b15801561092a57600080fd5b505af115801561093e573d6000803e3d6000fd5b505050503373ffffffffffffffffffffffffffffffffffffffff168160040160009054906101000a900473ffffffffffffffffffffffffffffffffffffffff1673ffffffffffffffffffffffffffffffffffffffff168260010160009054906101000a900473ffffffffffffffffffffffffffffffffffffffff1673ffffffffffffffffffffffffffffffffffffffff167f8b4c9c8a607d67b321582dd8461041b1dc2ceeca70c8b7f37f8e02095cf2e76d8685600201548660030154604051610a0a93929190610cd3565b60405180910390a45050600160008190555050565b600081359050610a2e81611031565b92915050565b600081359050610a4381611048565b92915050565b60008060408385031215610a5c57600080fd5b6000610a6a85828601610a1f565b9250506020610a7b85828601610a34565b9150509250929050565b600060208284031215610a9757600080fd5b6000610aa584828501610a34565b91505092915050565b610ab781610e42565b82525050565b610ac681610e30565b82525050565b610ad581610e54565b82525050565b610ae481610e9c565b82525050565b6000610af7601183610d0a565b9150610b0282610f67565b602082019050919050565b6000610b1a603383610d0a565b9150610b2582610f90565b604082019050919050565b6000610b3d601283610d0a565b9150610b4882610fdf565b602082019050919050565b6000610b60601f83610d0a565b9150610b6b82611008565b602082019050919050565b610b7f81610e92565b82525050565b6000602082019050610b9a6000830184610aae565b92915050565b6000606082019050610bb56000830186610abd565b610bc26020830185610abd565b610bcf6040830184610b76565b949350505050565b60006020820190508181036000830152610bf081610aea565b9050919050565b60006020820190508181036000830152610c1081610b0d565b9050919050565b60006020820190508181036000830152610c3081610b30565b9050919050565b60006020820190508181036000830152610c5081610b53565b9050919050565b6000602082019050610c6c6000830184610b76565b92915050565b600060c082019050610c876000830189610b76565b610c946020830188610adb565b610ca16040830187610b76565b610cae6060830186610b76565b610cbb6080830185610aae565b610cc860a0830184610acc565b979650505050505050565b6000606082019050610ce86000830186610b76565b610cf56020830185610b76565b610d026040830184610b76565b949350505050565b600082825260208201905092915050565b6000610d2682610e92565b9150610d3183610e92565b9250827fffffffffffffffffffffffffffffffffffffffffffffffffffffffffffffffff03821115610d6657610d65610f09565b5b828201905092915050565b6000610d7c82610e92565b9150610d8783610e92565b925082610d9757610d96610f38565b5b828204905092915050565b6000610dad82610e92565b9150610db883610e92565b9250817fffffffffffffffffffffffffffffffffffffffffffffffffffffffffffffffff0483118215151615610df157610df0610f09565b5b828202905092915050565b6000610e0782610e92565b9150610e1283610e92565b925082821015610e2557610e24610f09565b5b828203905092915050565b6000610e3b82610e72565b9050919050565b6000610e4d82610e72565b9050919050565b60008115159050919050565b6000610e6b82610e30565b9050919050565b600073ffffffffffffffffffffffffffffffffffffffff82169050919050565b6000819050919050565b6000610ea782610eae565b9050919050565b6000610eb982610e72565b9050919050565b6000610ecb82610e92565b91507fffffffffffffffffffffffffffffffffffffffffffffffffffffffffffffffff821415610efe57610efd610f09565b5b600182019050919050565b7f4e487b7100000000000000000000000000000000000000000000000000000000600052601160045260246000fd5b7f4e487b7100000000000000000000000000000000000000000000000000000000600052601260045260246000fd5b7f6974656d20616c726561647920736f6c64000000000000000000000000000000600082015250565b7f6e6f7420656e6f75676820657468657220746f20636f766572206974656d207060008201527f7269636520616e64206d61726b65742066656500000000000000000000000000602082015250565b7f6974656d20646f65736e27742065786973740000000000000000000000000000600082015250565b7f5265656e7472616e637947756172643a207265656e7472616e742063616c6c00600082015250565b61103a81610e60565b811461104557600080fd5b50565b61105181610e92565b811461105c57600080fd5b5056fea264697066735822122003702bb1257021ec38c0213ed46c39f36f73ef681d5ab1fb771db3325920e9e164736f6c63430008040033",
  "linkReferences": {},
  "deployedLinkReferences": {}
}